{
  "contractName": "Voting",
  "abi": [
    {
      "constant": true,
      "inputs": [],
      "name": "token",
      "outputs": [
        {
          "name": "",
          "type": "address"
        }
      ],
      "payable": false,
      "stateMutability": "view",
      "type": "function"
    },
    {
      "constant": false,
      "inputs": [
        {
          "name": "timeLimit",
          "type": "uint256"
        }
      ],
      "name": "startBidding",
      "outputs": [
        {
          "name": "BiddingID",
          "type": "uint256"
        }
      ],
      "payable": false,
      "stateMutability": "nonpayable",
      "type": "function"
    },
    {
      "constant": false,
      "inputs": [
        {
          "name": "BiddingID",
          "type": "uint256"
        },
        {
          "name": "BidderHash",
          "type": "bytes32"
        },
        {
          "name": "BidAmount",
          "type": "uint256"
        }
      ],
      "name": "Bid",
      "outputs": [
        {
          "name": "lowestBidder",
          "type": "address"
        }
      ],
      "payable": false,
      "stateMutability": "nonpayable",
      "type": "function"
    },
    {
      "constant": false,
      "inputs": [
        {
          "name": "BiddingID",
          "type": "uint256"
        },
        {
          "name": "key",
          "type": "bytes32"
        }
      ],
      "name": "BidEnd",
      "outputs": [
        {
          "name": "lowestBidder",
          "type": "address"
        }
      ],
      "payable": false,
      "stateMutability": "nonpayable",
      "type": "function"
    },
    {
      "constant": false,
      "inputs": [
        {
          "name": "BiddingID",
          "type": "uint256"
        }
      ],
      "name": "clean",
      "outputs": [],
      "payable": false,
      "stateMutability": "nonpayable",
      "type": "function"
    }
  ],
  "bytecode": "0x6060604052341561000f57600080fd5b6106b68061001e6000396000f30060606040526004361061006d576000357c0100000000000000000000000000000000000000000000000000000000900463ffffffff168063674ef0fa14610072578063840ba10c14610095578063a09e9c1d14610105578063e542eb061461013c578063fc0c546a146101b5575b600080fd5b341561007d57600080fd5b610093600480803590602001909190505061020a565b005b34156100a057600080fd5b6100c36004808035906020019091908035600019169060200190919050506102d2565b604051808273ffffffffffffffffffffffffffffffffffffffff1673ffffffffffffffffffffffffffffffffffffffff16815260200191505060405180910390f35b341561011057600080fd5b6101266004808035906020019091905050610519565b6040518082815260200191505060405180910390f35b341561014757600080fd5b6101736004808035906020019091908035600019169060200190919080359060200190919050506105a5565b604051808273ffffffffffffffffffffffffffffffffffffffff1673ffffffffffffffffffffffffffffffffffffffff16815260200191505060405180910390f35b34156101c057600080fd5b6101c8610665565b604051808273ffffffffffffffffffffffffffffffffffffffff1673ffffffffffffffffffffffffffffffffffffffff16815260200191505060405180910390f35b600060016000838152602001908152602001600020905060008160000181905550600060010281600101816000191690555060008160020160006101000a81548173ffffffffffffffffffffffffffffffffffffffff021916908373ffffffffffffffffffffffffffffffffffffffff1602179055506000816003018190555060008160040160006101000a81548173ffffffffffffffffffffffffffffffffffffffff021916908373ffffffffffffffffffffffffffffffffffffffff1602179055505050565b60008060016000858152602001908152602001600020905080600001544310158015610404575080600301546000809054906101000a900473ffffffffffffffffffffffffffffffffffffffff1673ffffffffffffffffffffffffffffffffffffffff166370a082318360040160009054906101000a900473ffffffffffffffffffffffffffffffffffffffff166000604051602001526040518263ffffffff167c0100000000000000000000000000000000000000000000000000000000028152600401808273ffffffffffffffffffffffffffffffffffffffff1673ffffffffffffffffffffffffffffffffffffffff168152602001915050602060405180830381600087803b15156103e657600080fd5b6102c65a03f115156103f757600080fd5b5050506040518051905010155b15610512576000809054906101000a900473ffffffffffffffffffffffffffffffffffffffff1673ffffffffffffffffffffffffffffffffffffffff1663a9059cbb8260020160009054906101000a900473ffffffffffffffffffffffffffffffffffffffff1683600301546040518363ffffffff167c0100000000000000000000000000000000000000000000000000000000028152600401808373ffffffffffffffffffffffffffffffffffffffff1673ffffffffffffffffffffffffffffffffffffffff16815260200182815260200192505050600060405180830381600087803b15156104f457600080fd5b6102c65a03f1151561050557600080fd5b5050506105118461020a565b5b5092915050565b6000600260008154809291906001019190505590508143016001600083815260200190815260200160002060000181905550336001600083815260200190815260200160002060040160006101000a81548173ffffffffffffffffffffffffffffffffffffffff021916908373ffffffffffffffffffffffffffffffffffffffff160217905550919050565b60008060016000868152602001908152602001600020905082816003015410806105d25750438160000154105b15610603578060020160009054906101000a900473ffffffffffffffffffffffffffffffffffffffff16915061065d565b338160020160006101000a81548173ffffffffffffffffffffffffffffffffffffffff021916908373ffffffffffffffffffffffffffffffffffffffff160217905550828160030181905550838160010181600019169055505b509392505050565b6000809054906101000a900473ffffffffffffffffffffffffffffffffffffffff16815600a165627a7a7230582080ba3210e5ad19cff3ecf39c1c8260c8925813e3f7cb51f5438cf2f3071c57040029",
  "source": "pragma solidity ^0.4.19;\n\nimport './ERC223.sol';\nimport './SafeMath.sol';\nimport './Token.sol';\n\ncontract Voting{\n    \n    ERC223Token public token;\n\tstruct Bidding{\n\t// structure of the bidding\n\tuint deadLine; // denotes the end time for the auction.\n\tbytes32 bidHash; // the hash which will be sent by the winner of the Bidding for payment release\n\taddress lowestBidder; // current lowest Bidder\n\tuint lowestBid; // the current amount for the lowest Bid\n\taddress Sender; // the person who will receive money for the lowest bid.\n\t}\n\t\n\t\n\n\tmapping (uint=>Bidding) BidMap; // A hashmap for BidId to the Bidding Structure.\n\tuint myGlobalCounter; //keeps count for the number of Bidding Contracts.\n\n\tfunction startBidding(uint timeLimit) returns (uint BiddingID){\n\tBiddingID= myGlobalCounter++;\n\tBidMap[BiddingID].deadLine=block.number+timeLimit;\n\tBidMap[BiddingID].Sender=msg.sender;\n\t}\n\n\tfunction Bid(uint BiddingID, bytes32 BidderHash, uint BidAmount) returns (address lowestBidder){\n\tBidding B = BidMap[BiddingID];\n\tif (B.lowestBid<BidAmount || B.deadLine<block.number) {\n\treturn B.lowestBidder;\n\t}\n\tB.lowestBidder=msg.sender;\n\tB.lowestBid= BidAmount;\n\tB.bidHash= BidderHash;\n\t}\n\n\tfunction BidEnd(uint BiddingID, bytes32 key) returns (address lowestBidder){\n\tBidding B = BidMap[BiddingID];\n\tif (block.number>=B.deadLine && token.balanceOf(B.Sender)>=B.lowestBid ){\n\ttoken.transfer(B.lowestBidder,B.lowestBid);\n\tclean(BiddingID);\n\t}\n\t}\n\t\n\n\tfunction clean(uint BiddingID) {\n\tBidding B = BidMap[BiddingID];\n\tB.deadLine=0;\n\tB.bidHash=0;\n\tB.lowestBidder=0;\n\tB.lowestBid=0;\n\tB.Sender=0;\n\t}\n\n}\n",
  "sourcePath": "/home/achal/Bidding/contracts/Voting.sol",
  "compiler": {
    "name": "solc",
    "version": "0.4.19+commit.c4cbbb05.Emscripten.clang"
  },
  "schemaVersion": "2.0.0",
  "updatedAt": "2018-04-02T05:44:03.233Z"
}