{
  "contractName": "Voting",
  "abi": [
    {
      "constant": false,
      "inputs": [
        {
          "name": "timeLimit",
          "type": "uint256"
        }
      ],
      "name": "startBidding",
      "outputs": [
        {
          "name": "BiddingID",
          "type": "uint256"
        }
      ],
      "payable": false,
      "stateMutability": "nonpayable",
      "type": "function"
    },
    {
      "constant": false,
      "inputs": [
        {
          "name": "BiddingID",
          "type": "uint256"
        },
        {
          "name": "BidderHash",
          "type": "bytes32"
        },
        {
          "name": "BidAmount",
          "type": "uint256"
        }
      ],
      "name": "Bid",
      "outputs": [
        {
          "name": "lowestBidder",
          "type": "address"
        }
      ],
      "payable": false,
      "stateMutability": "nonpayable",
      "type": "function"
    },
    {
      "constant": false,
      "inputs": [
        {
          "name": "BiddingID",
          "type": "uint256"
        },
        {
          "name": "key",
          "type": "bytes32"
        }
      ],
      "name": "BidEnd",
      "outputs": [
        {
          "name": "lowestBidder",
          "type": "address"
        }
      ],
      "payable": false,
      "stateMutability": "nonpayable",
      "type": "function"
    },
    {
      "constant": false,
      "inputs": [
        {
          "name": "BiddingID",
          "type": "uint256"
        }
      ],
      "name": "clean",
      "outputs": [],
      "payable": false,
      "stateMutability": "nonpayable",
      "type": "function"
    }
  ],
  "bytecode": "0x6060604052341561000f57600080fd5b6105148061001e6000396000f300606060405260043610610062576000357c0100000000000000000000000000000000000000000000000000000000900463ffffffff168063674ef0fa14610067578063840ba10c1461008a578063a09e9c1d146100fa578063e542eb0614610131575b600080fd5b341561007257600080fd5b61008860048080359060200190919050506101aa565b005b341561009557600080fd5b6100b8600480803590602001909190803560001916906020019091905050610271565b604051808273ffffffffffffffffffffffffffffffffffffffff1673ffffffffffffffffffffffffffffffffffffffff16815260200191505060405180910390f35b341561010557600080fd5b61011b600480803590602001909190505061039f565b6040518082815260200191505060405180910390f35b341561013c57600080fd5b610168600480803590602001909190803560001916906020019091908035906020019091905050610429565b604051808273ffffffffffffffffffffffffffffffffffffffff1673ffffffffffffffffffffffffffffffffffffffff16815260200191505060405180910390f35b6000806000838152602001908152602001600020905060008160000181905550600060010281600101816000191690555060008160020160006101000a81548173ffffffffffffffffffffffffffffffffffffffff021916908373ffffffffffffffffffffffffffffffffffffffff1602179055506000816003018190555060008160040160006101000a81548173ffffffffffffffffffffffffffffffffffffffff021916908373ffffffffffffffffffffffffffffffffffffffff1602179055505050565b6000806000808581526020019081526020016000209050806000015443101580156102c4575080600101546000191683604051808260001916600019168152602001915050604051809103902060001916145b15610398578060020160009054906101000a900473ffffffffffffffffffffffffffffffffffffffff168160040160006101000a81548173ffffffffffffffffffffffffffffffffffffffff021916908373ffffffffffffffffffffffffffffffffffffffff1602179055508060040160009054906101000a900473ffffffffffffffffffffffffffffffffffffffff1673ffffffffffffffffffffffffffffffffffffffff166108fc82600301549081150290604051600060405180830381858888f1935050505050610397846101aa565b5b5092915050565b600060016000815480929190600101919050559050814301600080838152602001908152602001600020600001819055503360008083815260200190815260200160002060040160006101000a81548173ffffffffffffffffffffffffffffffffffffffff021916908373ffffffffffffffffffffffffffffffffffffffff160217905550919050565b600080600080868152602001908152602001600020905082816003015410806104555750438160000154105b15610486578060020160009054906101000a900473ffffffffffffffffffffffffffffffffffffffff1691506104e0565b338160020160006101000a81548173ffffffffffffffffffffffffffffffffffffffff021916908373ffffffffffffffffffffffffffffffffffffffff160217905550828160030181905550838160010181600019169055505b5093925050505600a165627a7a72305820d4f007c804f2311b29d95d498b46f5d2c925a787e625541583fc4b44fb7e7b760029",
  "source": "contract Voting{\n\t//contract for bidding\n\tstruct Bidding{\n\t// structure of the bidding\n\tuint deadLine; // denotes the end time for the auction.\n\tbytes32 bidHash; // the hash which will be sent by the winner of the Bidding for payment release\n\taddress lowestBidder; // current lowest Bidder\n\tuint lowestBid; // the current amount for the lowest Bid\n\taddress Sender; // the person who will receive money for the lowest bid.\n\t}\n\n\tmapping (uint=>Bidding) BidMap; // A hashmap for BidId to the Bidding Structure.\n\tuint myGlobalCounter; //keeps count for the number of Bidding Contracts.\n\n\tfunction startBidding(uint timeLimit) returns (uint BiddingID){\n\tBiddingID= myGlobalCounter++;\n\tBidMap[BiddingID].deadLine=block.number+timeLimit;\n\tBidMap[BiddingID].Sender=msg.sender;\n\t}\n\n\tfunction Bid(uint BiddingID, bytes32 BidderHash, uint BidAmount) returns (address lowestBidder){\n\tBidding B = BidMap[BiddingID];\n\tif (B.lowestBid<BidAmount || B.deadLine<block.number) {\n\treturn B.lowestBidder;\n\t}\n\tB.lowestBidder=msg.sender;\n\tB.lowestBid= BidAmount;\n\tB.bidHash= BidderHash;\n\t}\n\n\tfunction BidEnd(uint BiddingID, bytes32 key) returns (address lowestBidder){\n\tBidding B = BidMap[BiddingID];\n\tif (block.number>=B.deadLine && keccak256(key)==B.bidHash){\n\tB.Sender=B.lowestBidder;\n\tB.Sender.send(B.lowestBid);\n\tclean(BiddingID);\n\t}\n\t}\n\n\tfunction clean(uint BiddingID) {\n\tBidding B = BidMap[BiddingID];\n\tB.deadLine=0;\n\tB.bidHash=0;\n\tB.lowestBidder=0;\n\tB.lowestBid=0;\n\tB.Sender=0;\n\t}\n\n}\n",
  "sourcePath": "/home/achal/Bidding/contracts/Voting.sol",
  "compiler": {
    "name": "solc",
    "version": "0.4.19+commit.c4cbbb05.Emscripten.clang"
  },
  "schemaVersion": "2.0.0",
  "updatedAt": "2018-03-28T19:39:55.907Z"
}